:04000000B3EF3FF02B
:107F66000001B6EF3FF00F0EC16E000E956E000ECB
:107F7600966E000E946E928092829284959095925F
:107F8600959495969598959A9490949294948C90AD
:107F96008C928C94720ED36E80A0D4EF3FF0D6EF05
:107FA6003FF0DBEF3FF08C908C828C94DEEF3FF05D
:107FB6008C908C928C8480A2E3EF3FF0E5EF3FF04B
:107FC600EAEF3FF08C968C888C9AEDEF3FF08C961A
:107FD6008C988C8A80A4F2EF3FF0F4EF3FF0F9EF33
:107FE6003FF08B908B828B94CFEF3FF08B908B92F0
:0A7FF6008B84CFEF3FF000EF00F0A6
:020000040020DA
:08000000FFFFFFFFFFFFFFFF00
:020000040030CA
:0E00000000051F1FFF8385FF0FC00FE00F409C
:00000001FF
